S00E00004D41533234352E737265639A
S11300000C9434000C943E000C943E000C943E007E
S11300100C943E000C943E000C943E000C943E0064
S11300200C943E000C943E000C943E000C943E0054
S11300300C943E000C943E000C943E000C943E0044
S11300400C943E000C943E000C943E000C943E0034
S11300500C943E000C943E000C943E000C943E0024
S11300600C943E000C943E0011241FBECFEFD4E04C
S1130070DEBFCDBF0E9450000C946F000C940000B2
S11300808AB180648AB984B5806884BD84B582608D
S113009084BD84B5816084BD85B5816085BD0895C6
S11300A00E9440008FEF90E008C087BDE9EFF0E0C8
S11300B03197F1F700C00000019718161906ACF348
S11300C080E090E008C087BDE9EFF0E03197F1F7F8
S11300D000C0000001968F3F9105ACF3E3CFF89484
S10500E0FFCF4C
S9030000FC
